:020000040800F2
:10000000FCFF0020652500005D2500005D25000047
:100010005D2500005D2500005D2500005D250000D8
:100020005D2500005D2500005D2500005D250000C8
:100030005D2500005D2500005D2500005D250000B8
:100040005D2500005D2500005D2500005D250000A8
:100050005D2500005D2500005D2500005D25000098
:100060005D2500005D2500005D2500005D25000088
:100070005D2500005D2500005D2500005D25000078
:100080005D2500005D2500005D2500005D25000068
:100090005D2500005D2500005D2500005D25000058
:1000A0005D2500005D2500005D2500005D25000048
:1000B0005D2500005D2500005D2500005D25000038
:1000C0005D2500005D2500005D2500005D25000028
:1000D0005D2500005D2500005D2500005D25000018
:1000E0005D2500005D2500005D2500005D25000008
:1000F0005D2500005D2500005D2500005D250000F8
:100100005D2500005D2500005D2500005D250000E7
:100110005D2500005D2500005D2500005D250000D7
:100120005D2500005D2500005D2500005D250000C7
:100130005D2500005D2500005D2500005D250000B7
:100140005D2500005D2500005D2500005D250000A7
:1001500081B000F218010A68C2F3400181F0010188
:10016000C9B2C8B201B0704781B000F214010A6888
:1001700000F218010968090442EA0101084601B0C9
:100180007047FFFF01480068704700BF0001002072
:1001900081B0CDF800E00B46FFF7E6FF00EA03026E
:1001A0009A4240F2000200D10122D0B2DDF800E014
:1001B00001B0704783B0CDF800E000F0FF031A09EA
:1001C000104603F00F02134614E0194A02921FE092
:1001D000184A02921CE0184A029219E0174A029249
:1001E00016E0174A029213E0164A029210E0164AED
:1001F00002920DE00028E8D00128E9D00228EAD0D8
:100200000328EBD00428ECD00528EDD00628EED04A
:10021000012212B29A40ADF8042002980A46BDF8B5
:10022000041000F0B1FEDDF800E003B0704700BF3D
:1002300000080140000C0140001001400014014082
:1002400000180140001C01400020014081B0CDF8A1
:1002500000E04FF000021949884207D118490B68A5
:1002600018490A6818490A601C460BE01749884279
:1002700007D117490B6817490A6813490A601C46D9
:1002800000E0144614490C6003461846FFF760FF6F
:1002900070B91149096851B12CB905200A4C24687C
:1002A000A047002005E0611E08460446FFE7ECE792
:1002B0000120DDF800E001B0704700BF00540040AD
:1002C000B800002008010020040100200058004070
:1002D000BC0000200C010020C000002082B0CDF83E
:1002E00000E0034619460191FFF74CFF40F2E83168
:1002F00000FB01F201990A601F490978C1F303115B
:10030000C8B21E4909180878C0B21A1D1968C14040
:10031000116019490988C1F3022188B217490918E7
:100320000878C0B203F20802191D0968C1401160C3
:1003300011490988C1F3C22188B210490918087807
:10034000C0B203F20C02191D0968C14011600A49CC
:100350000988C1F3813188B2094909180978C8B2FE
:1003600003F2100203F20C010968B1FBF0F1116015
:10037000DDF800E002B07047041002409029000050
:10038000B829000081B00168C1F3401001B0704786
:1003900082B0CDF800E0029E4FF00005564CA0421E
:1003A00006D1564C2768564C2568564C25600AE005
:1003B000554CA04206D1554C2768554C2568514CE8
:1003C000256000E02F46534C276000F210054C00DA
:1003D000A4B22C60B9460746904635461E464E49A3
:1003E0003846FFF7D5FE88B94A4C24686CB1B9F19C
:1003F000000F06D10420434C2468A0474FF6FF703D
:1004000076E0A9F101008146FFE7E8E700200197C7
:1004100029463746019E7C1EA04226D206F21005D0
:1004200008EB000424782C603A4CD4F80090824603
:100430000D463A493046FFF7ABFE88B9354C246883
:100440006CB1B9F1000F06D104202E4C2468A047EE
:100450004FF6FF704CE0A9F101008146FFE7E8E7A5
:100460000AF1010420462946D5E706F2100508EBFB
:10047000000424782C60274C27680D462849304614
:10048000FFF786FE70B9234C246854B137B90420B5
:100490001C4C2468A0474FF6FF7029E0781E0746E1
:1004A000FFE7EBE7012D05D10125346865F3492409
:1004B00034601CE00125346865F308243460154C71
:1004C0002768354617492846FFF762FE78B9114C70
:1004D00024685CB137B904200A4C2468A0474FF661
:1004E000FF7005E07C1E20460746FFE7EAE7002094
:1004F000DDF800E002B0704700540040B800002072
:10050000080100200401002000580040BC00002029
:100510000C010020C00000208200070080000700BE
:10052000840007000100030081B00168C1F380105E
:1005300001B0704781B0CDF800E0012252B23E49CF
:100540000A6000F268010B686FF0006103EA0102C3
:10055000144603F00061C90E0B4602F00041B1F1F0
:10056000004F02D135490A6801E035490A6804F4B0
:100570007021090C0E464FF6FF7104EA01010D4689
:1005800004F44011B1F5401F0DD16FF0706102EA23
:1005900001010E462A490A686FF070610A40284935
:1005A0000A60324616E004F48011B1F5801F09D1CB
:1005B0004FF00301B140C94302EA010141F070610B
:1005C0000A4607E0610D090105FA01F1C9430A4035
:1005D00042F070622BB1610D090105FA01F10A4385
:1005E000FFE704F00041B1F1004F02D113490A6066
:1005F00001E013490A6040F2000A81464FEA8A018D
:1006000009EB01010968B1F1FF3F10D009F1340194
:100610004FEA8A03C91809680A4609EB0301096809
:1006200008461146FFF7C6FD0AF1010AE6E7DDF8C4
:1006300000E001B0704700BF000342421C000140CF
:100640000400014081B00268C2F3401101B9FAE729
:10065000011D096888B201B07047FFFF81B01949D8
:1006600000EA0101084600220EE0042022E00820F2
:1006700020E010201EE020201CE040201AE0802016
:1006800018E040F2001015E00F498842EDD00F4904
:100690008842ECD00E498842EBD00E498842EAD01D
:1006A0000D498842E9D00D498842E8D00C4988427A
:1006B000E7D010460B49096841EA000209490A607F
:1006C00001B0704700FCFFFF00080140000C014032
:1006D000001001400014014000180140001C0140BE
:1006E000002001401810024083B0CDF800E003461E
:1006F0004FF0000026498B4206D126490C68264956
:100700000A6826490A600BE025498B4207D1254932
:10071000086825490A6821490A60044600E0044641
:1007200022490C60019402931846FFF78FFD029B4B
:10073000019C10B94FF6FF7025E00122196862F3A1
:100740000821196003F214010A68C2F3402111B1B3
:100750004FF6FF7017E025461C4615492046FFF767
:1007600017FD78B91149096859B135B906200B4C04
:100770002468A0474FF6FF7005E0691E084605464D
:10078000FFE7EAE70020DDF800E003B0704700BFB4
:1007900000540040B800002008010020040100209F
:1007A00000580040BC0000200C010020C0000020C8
:1007B0000100030082B0CDF800E0CFB201469846B8
:1007C000029B4FF000064FF00005C44CA14207D138
:1007D000C34CD4F80090C34C2568C34C25600BE093
:1007E000C24CA14207D1C24C2068C24C2568BE4C05
:1007F0002560814600E0A946BF4CC4F80090F4E1B2
:1008000001F210057C00A4B244F00104A4B22C60F3
:10081000019616464F46019A01F214042568C5F365
:10082000400464B9B44C246844B127B90320AE4CE9
:100830002468A047E2E1781E0746FFE7ECE70025C1
:100840000C6865F38A240C6001F21404206800BF70
:1008500001F218042468240440EA04042046012B11
:1008600005D101250C6865F349240C6004E00125DD
:100870000C6865F308240C609F4C256891469846E7
:1008800037460E469D493046FFF782FC68B99A4CC0
:1008900024684CB125B90320934C2468A047ADE1EE
:1008A0006C1E20460546FFE7ECE707EB090506F25C
:1008B000100424682C70B8F1010F13D18E4C2168FC
:1008C00030460568C5F340245CB98B4C24683CB1C4
:1008D00021B90320844C2468A0478FE1491EFFE71B
:1008E000EFE712E0844C216830460568C5F3002428
:1008F0005CB9814C24683CB121B903207A4C24684E
:10090000A0477BE1491EFFE7EFE777E101250C688F
:1009100065F38A240C6001250C6865F3CB240C6018
:1009200001F210057C00A4B244F00104A4B22C60D2
:100930004F4601F214042568C5F3400464B96E4CB7
:10094000246844B127B90320674C2468A04755E1C7
:10095000781E0746FFE7ECE701F21404206800BFA9
:1009600001F2180424682404204300250C6865F370
:100970008A240C60604C276801F214042568C5F3D2
:10098000800464B95C4C246844B127B90320564CF8
:100990002468A04732E1781E0746FFE7ECE7012B09
:1009A00005D101250C6865F349240C6004E001259C
:1009B0000C6865F308240C60951901F21004246892
:1009C0002C70741C151901F2100424682C70012B72
:1009D00014D1494C22680D68C5F3402464B9464CD3
:1009E000246844B122B903203F4C2468A04705E1A4
:1009F000501E0246FFE7EEE7084613E03E4C226831
:100A00000D68C5F3002464B93B4C246844B122B995
:100A10000320354C2468A047F0E0501E0246FFE753
:100A2000EEE708460025046865F3CB240460E5E0A2
:100A300001250C6865F38A240C6001F210057C0026
:100A4000A4B244F00104A4B22C604646C8468946CC
:100A500017461D462A494846FFF79AFB78B9264CA7
:100A600024685CB1B8F1000F04D103201E4C246847
:100A7000A047C3E0A8F101008046FFE7EAE70021B4
:100A8000A8464A46B1463B46A9F10304A14222D2F8
:100A9000194C25688A4617461E4618493846FFF7FE
:100AA00077FB60B9144C246844B125B903200E4C7F
:100AB0002468A047A2E0681E0546FFE7EDE706EBC5
:100AC0000A0507F2100424682C700AF1010421467B
:100AD00033463A46D8E7084C00F014B800540040BA
:100AE000B800002008010020040100200058004048
:100AF000BC0000200C010020C000002040000300CA
:100B000002000300276801930B46164642460199EE
:100B100006F214042568C5F3800464B9394C2468CE
:100B200044B127B90320384C2468A04766E0781EFA
:100B30000746FFE7ECE70025346865F38A24346054
:100B4000CD1806F2100424682C70581C2D4C236814
:100B50001746024606F214042568C5F3800464B9FA
:100B6000284C246844B123B90320274C2468A047AB
:100B700044E0581E0346FFE7ECE7012F07D10125AB
:100B8000346865F3492434601046324621E001257B
:100B9000346865F3082434601A4CD4F80080174692
:100BA0000D461A493046FFF7F3FA78B9154C246818
:100BB0005CB1B8F1000F04D10320134C2468A047A6
:100BC0001CE0A8F101008046FFE7EAE7294632462B
:100BD00038460D1802F2100424682C70441C0D19BC
:100BE00002F2100424682C7008E0B8F1010F3FF401
:100BF00007AEB8F1020F3FF489AE19E7DDF800E067
:100C000002B07047C0000020040100200100030072
:100C100081B0CDF800E00348FFF7B4FBDDF800E059
:100C200001B07047004C004081B0CDF800E00348AF
:100C3000FFF77AFCDDF800E001B0704700440040A7
:100C400081B0CDF800E00348FFF76EFCDDF800E06E
:100C500001B07047004C004081B0CDF800E003487F
:100C6000FFF790FBDDF800E001B07047004800405E
:100C700081B0CDF800E00348FFF7E4FCDDF800E0C8
:100C800001B070470048004081B0CDF800E0034853
:100C9000FFF74AFCDDF800E001B070470048004073
:100CA00081B0CDF800E00348FFF7CCFCDDF800E0B0
:100CB00001B07047004C004081B0CDF800E003481F
:100CC000FFF760FBDDF800E001B070470044004032
:100CD00081B0CDF800E00348FFF706FDDDF800E045
:100CE00001B070470058004081B0CDF800E00348E3
:100CF000FFF7FAFCDDF800E001B070470054004057
:100D000081B0ADF800100146BDF800000B68C3F3D8
:100D1000C01202B9FAE70A1D106001B07047FFFF68
:100D200081B0CDF800E00348FFF78CFCDDF800E06F
:100D300001B070470038014081B0CDF800E00348B1
:100D4000FFF780FCDDF800E001B070470044004090
:100D500081B0CDF800E00348FFF7E6FBDDF800E0E6
:100D600001B070470038014081B0CDF800E0034881
:100D7000FFF708FBDDF800E001B0704700380140E4
:100D800088B0CDF800E00E46554B98420DD10124B5
:100D900064B2544B1C60544C544B1C60544C554B27
:100DA0001C60554C554B1C600FE0554B98420CD1C4
:100DB000012464B2534B1C60534C4C4B1C60534C8D
:100DC0004C4B1C60524C4D4B1C60019602901046DF
:100DD000FFF7B0FB0298019E031D1B689CB26FF0E9
:100DE0003F0304EA03039DB203AB01901846FFF7EB
:100DF00075FA0198059F059C464BB4FBF3F399B235
:100E00009BB245EA0304A4B2031D1C6000240368DE
:100E100064F30003036000223F4B9E4212D873002C
:100E2000B7FBF3F4A4B2042C02D204231C46FFE760
:100E300042EA04039AB200F220044B1C9BB22360E6
:100E400091B23FE0032306FB03F4B7FBF4F31FFA70
:100E500083F8192306FB03F5B7FBF5F31FFA83F9B3
:100E600008FB04F409FB05F33C1BFB1A9C4205D26A
:100E700003237343B7FBF3F4A4B206E019237343CF
:100E8000B7FBF3F4A4B244F4804440F6FF7304EAE1
:100E9000030313B944F00104FFE744F400439BB299
:100EA0001A4392B200F2200540F22C1301FB03F426
:100EB000A4B240F2E833B4FBF3F39BB25B1C9BB2E9
:100EC0002B6091B200F21C0319600023036001241F
:100ED000036864F300030360DDF800E008B07047C6
:100EE00000540040D4034242E90C000010010020ED
:100EF0007D11000014010020410F000018010020A6
:100F000000580040D8034242D10C0000650F000099
:100F10001D0F000040420F00A086010081B0CDF8F7
:100F200000E008B413460A46C1B20448FFF730FA9D
:100F300001B0DDF800E001B0704700BF005800408C
:100F400081B0CDF800E008B413460A46C1B20448A7
:100F5000FFF71EFA01B0DDF800E001B0704700BFF6
:100F60000054004081B0CDF800E008B413460A46B2
:100F7000C1B20448FFF71EFC01B0DDF800E001B08B
:100F8000704700BF0058004081B0CDF800E08CB23F
:100F90001546774B00EA03031E461846FFF75EFB33
:100FA000B4F1FF0F0CD1734B9D4203D14FF033339B
:100FB0003360D9E0422D03D14FF044333360D3E0A6
:100FC0004FF6FF739C4214D16A4B9D4207D14FF0FC
:100FD00033333360341D4FF033332360C4E0422D8C
:100FE00007D14FF044333360341D4FF04433236056
:100FF000BAE00021002005F001030BB100211DE043
:1010000005F0020333B105F4C0730BB1082100E011
:10101000042113E005F0040333B105F020030BB104
:10102000042100E0002109E005F0080333B105F0D8
:1010300020030BB10C2100E00821FFE74E4B05EA2D
:1010400003030BB1032009E005F400730BB1022088
:1010500004E005F480630BB10120FFE705F00C0309
:101060000BB10143FFE704F0FF039BB2002B3BD021
:10107000376800201FFA84F832462E4608282CD202
:101080004FF0010303FA00F408EA0403A34222D15B
:1010900085004FF00F03AB40DB4307EA030401FA7E
:1010A00005F344EA03031D4606F48173B3F5817F1B
:1010B00005D102F214044FF001038340236006F0CF
:1010C0008203822B05D102F210044FF0010383400A
:1010D00023602F46FFE7401CD0E717601FFA88F017
:1010E0000F463146164602E00F462946A0B2B0F13F
:1010F000FF0F39D9331DD3F800800022082A30D2DF
:1011000002F208044FF0010303FA04F400EA0403B6
:10111000A34224D195004FF00F03AB40DB4308EA14
:10112000030807FA05F348EA030801F48173B3F5ED
:10113000817F07D106F2140502F208044FF0010383
:10114000A3402B6001F08203822B07D106F2100529
:1011500002F208044FF00103A3402B60FFE7521C8A
:10116000CCE7331DC3F80080DDF800E001B0704724
:1011700000FCFFFF140008000008080081B0CDF853
:1011800000E008B413460A46C1B20448FFF712FB58
:1011900001B0DDF800E001B0704700BF005400402E
:1011A00089B0CDF800E0834698B28C46BDF8241093
:1011B0000A9E04ACADF80410ADF808002046FFF715
:1011C0008DF8BDF80800BDF80410644CA34512D199
:1011D00001256DB2624C2560624D634C2560634D04
:1011E000634C2560634D644C2560644D644C256000
:1011F000079C039456E0634CA34512D101256DB2C0
:10120000614C2560614D584C2560614D584C2560FE
:10121000604D594C2560604D594C2560069C0394E7
:1012200040E05E4CA34512D101256DB25C4C2560B7
:101230005C4D4D4C25605C4D4D4C25605B4D4E4CDE
:1012400025605B4D4E4C2560069C03942AE0594C6A
:10125000A34512D101256DB2574C2560574D424C24
:101260002560574D424C2560564D434C2560564DE8
:10127000434C2560069C039414E0544CA34511D1C3
:1012800001256DB2524C2560524D374C2560524DB0
:10129000374C2560514D384C2560514D384C2560F8
:1012A000069C0394ADF80410ADF808003046FFF733
:1012B00041F9BDF80800BDF804100BF11005002439
:1012C0002C600BF110052C680C432C600BF10C0505
:1012D00000242C6018B140F4806080B2FFE70BF16D
:1012E0000C052C6804432C600BF10C0601253468B6
:1012F00065F34D3434600BF10C060125346865F359
:10130000C30434600BF10C060125346865F38204D4
:1013100034600BF1140500242C60039D19246543EF
:101320004FEA8C04B5FBF4F76424B7FBF4F4260110
:10133000350964246C433C1B240104F23205642407
:10134000B5FBF4F404F00F0446EA04040BF10805BD
:10135000A4B22C60DDF800E009B07047003801400D
:1013600038034242491400001C010020210D0000F6
:1013700020010020690D000024010020510D000013
:101380002801002000440040C40342422D14000004
:10139000390D0000B90C0000290C00000048004085
:1013A000C8034242C9140000710C0000590C00002F
:1013B000890C0000004C0040CC0342428114000024
:1013C000A10C0000110C0000410C00000050004076
:1013D000D003424265140000FD1300001514000004
:1013E000E513000081B0CDF800E00348FFF79CF85A
:1013F000DDF800E001B070470050004081B0CDF84A
:1014000000E00348FFF71EF9DDF800E001B0704787
:101410000050004081B0CDF800E00348FEF7B2FF75
:10142000DDF800E001B070470050004081B0CDF819
:1014300000E081B20348FFF763FCDDF800E001B093
:10144000704700BF0044004081B0CDF800E081B299
:101450000348FFF755FCDDF800E001B0704700BF1E
:101460000038014081B0CDF800E081B20348FFF7B9
:1014700047FCDDF800E001B0704700BF00500040BD
:1014800081B0CDF800E081B20348FFF739FCDDF808
:1014900000E001B0704700BF004C004082B0CDF8C2
:1014A00000E040F20004ADF80440064C2468A04778
:1014B000BDF9041041EA000000B2DDF800E002B01E
:1014C000704700BF2C01002081B0CDF800E081B250
:1014D0000348FFF715FCDDF800E001B0704700BFDE
:1014E0000048004081B0CDF800E04FF0420289B2E0
:1014F000FFF74AFDDDF800E001B0704781B0CDF89C
:1015000000E0019D2C4610B408B493B28AB20146A3
:101510000348FFF745FE02B0DDF800E001B0704778
:101520000044004081B0CDF800E00A46014603487F
:10153000FFF726FCDDF800E001B0704700540040E2
:1015400081B0CDF800E0019D2C4610B408B493B2F0
:101550008AB201460348FFF723FE02B0DDF800E03F
:1015600001B070470048004082B0CDF800E040F282
:101570000004ADF80440054C2468A047BDF90440C0
:10158000044320B2DDF800E002B0704730010020D3
:1015900082B0CDF800E040F20004ADF80440044C05
:1015A0002468A047BDF90400DDF800E002B07047F0
:1015B0003401002081B0CDF800E0044A89B2FFF781
:1015C000E3FCDDF800E001B0704700BF1400080044
:1015D00081B0CDF800E0019D2C4610B408B493B260
:1015E0008AB201460348FFF7DBFD02B0DDF800E0F8
:1015F00001B070470038014081B0FAB590EA0206A8
:101600004CBF4FF000464FF000064FEA00214FEA72
:1016100040031B0E12BF41F000414FF000002CE0D0
:10162000FF2B26D04FEA02244FEA42052D0E12BFAF
:1016300044F000444FF000001FE0FF2D19D05B196B
:10164000A1FB0454002C5CBF64005B1E803424BFEB
:101650005B1C64087E3BDCBF4FF000000DE0FF2BFD
:1016600007D24FEA142030F4000040EAC350304360
:1016700003E0FF27FF0546EA0700BDE8FA4001B096
:101680007047FFFF81B0CDF800E00178CCB2A0B286
:10169000034C2468A0470020DDF800E001B070474B
:1016A000FC000020D3B20A4601460D461046DAB2CD
:1016B000D4B2531EDAB224B103782B706D1C401CD7
:1016C000F6E708467047FFFF83B0CDF800E0C3B2ED
:1016D0008DF80430022000F053F89DF8043000B17A
:1016E000F6E702AA01211170511C0B70FFF7D6FE1C
:1016F00002AA184909780123C8B211460222FFF74D
:1017000033FF012000F03CF800B1FAE702AA022101
:101710001170FFF7C3FE02AA0E4909780023C8B270
:1017200011460122FFF720FF00F04AFB0DF10A02EB
:10173000084909780123C8B211460122FFF728FFA2
:1017400000F03EFB0DF10A010978C8B2DDF800E0B7
:1017500003B07047B600002081B0009101460098A8
:101760000B461C465A1C15460346421C10461A7866
:10177000227022780AB12B46F3E7084601B0704781
:1017800083B0CDF800E08DF808000DF105020021CE
:101790001170FFF783FE0DF105021049097800234F
:1017A000C8B211460122FFF7DFFE01AA0B490978F2
:1017B0000123C8B211460122FFF7EAFE01A90A7807
:1017C0009DF8081002EA0101C9B209B1012000E048
:1017D0000020DDF800E003B0704700BFB600002035
:1017E00081B010B5904208BF2AE040EA02044FEAF7
:1017F0004404002C08BF23E0440004D1944201D4E7
:10180000A41C012C1CE04FEA40044FEA1464FF2C96
:101810000AD14FEA42044FEA1464FF2C04D14FEA84
:10182000D274B4EBD0340BE0002A06D4002802DCDA
:101830000024012C04E0904202E0002848BF8242CC
:10184000BDE8104001B0704701490860704700BF13
:10185000B481224201490860704700BFA8012242BA
:1018600001490860704700BF9001214201490860AA
:10187000704700BF8801224201490860704700BFDD
:10188000AC01224201490860704700BFA881224292
:1018900001490860704700BFA481224201490860E5
:1018A000704700BFB001224201490860704700BF85
:1018B0008001214200F230011C310A6803490A60AC
:1018C000011D0A6802490A60704700BF3C01002000
:1018D0003801002081B0CDF800E0016808460449D5
:1018E000FFF720FE0020DDF800E001B0704700BFE8
:1018F000C428000081B0CDF800E001680846044922
:10190000FFF710FE0020DDF800E001B0704700BFD7
:10191000C428000081B0CDF800E0A9E0012905D17C
:1019200040F210016548FFF7DDFD04E040F21001D0
:101930006248FFF73FFEBBE0012905D140F20401F8
:101940005F48FFF7CFFD04E040F204015C48FFF779
:1019500031FEADE0012905D142F200015948FFF7FF
:10196000C1FD04E042F200015648FFF723FE9FE06C
:10197000012905D140F200415148FFF7B3FD04E0D1
:1019800040F200414E48FFF715FE91E0012905D1D4
:1019900040F600014A48FFF7A5FD04E040F60001CB
:1019A0004748FFF707FE83E0012905D141F2000116
:1019B0004348FFF797FD04E041F200014048FFF77C
:1019C000F9FD75E0012905D140F201013B48FFF71F
:1019D00089FD04E040F201013848FFF7EBFD67E0C4
:1019E000012905D140F200413648FFF77BFD04E0B4
:1019F00040F200413348FFF7DDFD59E0012905D1F0
:101A000040F200212F48FFF76DFD04E040F2002175
:101A10002C48FFF7CFFD4BE0012905D140F2001122
:101A20002848FFF75FFD04E040F200112548FFF76A
:101A3000C1FD3DE0012905D140F240012248FFF7F8
:101A400051FD04E040F240011F48FFF7B3FD2FE0D5
:101A5000012905D140F280011B48FFF743FD04E056
:101A600040F280011848FFF7A5FD21E0012020E0A9
:101A700000283FF453AF01283FF45EAF02283FF443
:101A800069AF03283FF474AF04283FF47FAF052803
:101A90003FF48AAF06283FF495AF0728A0D0082866
:101AA000ACD00928B8D00A28C4D00B28D0D0DDE7A4
:101AB0000020DDF800E001B0704700BF00080140E1
:101AC0000010014000140140000C014081B0CDF82D
:101AD00000E0A9E0012905D140F220016548FFF7A7
:101AE00001FD04E040F220016248FFF763FDBBE026
:101AF000012905D140F208015F48FFF7F3FC04E03B
:101B000040F208015C48FFF755FDADE0012905D121
:101B100044F200015948FFF7E5FC04E044F20001FB
:101B20005648FFF747FD9FE0012905D140F20041EB
:101B30005148FFF7D7FC04E040F200414E48FFF760
:101B400039FD91E0012905D140F600014A48FFF72F
:101B5000C9FC04E040F600014748FFF72BFD83E095
:101B6000012905D141F200014348FFF7BBFC04E025
:101B700041F200014048FFF71DFD75E0012905D144
:101B800041F200013D48FFF7ADFC04E041F20001E5
:101B90003A48FFF70FFD67E0012905D140F6000143
:101BA0003648FFF79FFC04E040F600013348FFF79A
:101BB00001FD59E0012905D140F240012F48FFF70E
:101BC00091FC04E040F240012C48FFF7F3FC4BE0AD
:101BD000012905D140F220012848FFF783FC04E0E9
:101BE00040F220012548FFF7E5FC3DE0012905D141
:101BF00040F240012248FFF775FC04E040F240014A
:101C00001F48FFF7D7FC2FE0012905D140F28001E2
:101C10001B48FFF767FC04E040F280011848FFF71B
:101C2000C9FC21E0012020E000283FF453AF012847
:101C30003FF45EAF02283FF469AF03283FF474AF6E
:101C400004283FF47FAF05283FF48AAF06283FF40D
:101C500095AF0728A0D00828ACD00928B8D00A280A
:101C6000C4D00B28D0D0DDE70020DDF800E001B0C3
:101C7000704700BF000801400010014000140140FF
:101C8000000C014081B0CDF800E0094902B440F2F7
:101C9000000340F2000240F20001FFF751FC01B0E6
:101CA000044A05490A600020DDF800E001B07047F1
:101CB00080270000C9140000FC00002081B0CDF88E
:101CC00000E0094902B440F2000340F2000240F291
:101CD0000001FFF713FC01B0044A05490A60002027
:101CE000DDF800E001B07047EC2700002D14000083
:101CF000FC000020026806490A60011D0A680549C7
:101D00000A6000F208010A6803490A60704700BFD0
:101D10002C010020300100203401002081B0CDF8DA
:101D200000E0094902B440F2000340F2000240F230
:101D30000001FFF7E3FB01B0044A05490A600020F7
:101D4000DDF800E001B07047EC2700002D14000022
:101D5000FC00002081B0CDF800E0094902B440F257
:101D6000000340F2000240F20001FFF731FC01B035
:101D7000044A05490A600020DDF800E001B0704720
:101D80005828000049140000FC00002001490860A8
:101D9000704700BF9881224201490860704700BF28
:101DA0009481224201490860704700BFB0812242FD
:101DB00001490860704700BFB0812242A08601003F
:101DC00044F67F77C0F212077F1EFDD100BF00BF2F
:101DD00000BF00BF00BF704741F6FF27C0F2B70742
:101DE0007F1EFDD100BF00BF00BF00BF00BF704716
:101DF00001490860704700BF98812142014908608D
:101E0000704700BF9C81214201490860704700BFB4
:101E1000B001224201490860704700BF940121428D
:101E200001490860704700BF8C01224201490860E7
:101E3000704700BFB881224201490860704700BF67
:101E4000A081224201490860704700BF9881214269
:101E500001490860704700BF9C8121420149086028
:101E6000704700BFA801224201490860704700BFC7
:101E7000AC01224281B0CDF800E001200B4C246877
:101E8000A047FFF79DFF0020084C2468A047FFF7FC
:101E900097FF0120054C2468A047FFF79DFFFFF73F
:101EA0009BFFDDF800E001B0704700BF3801002063
:101EB00083B0CDF800E0024610460D228DF80820D0
:101EC0000A228DF809201FE0FFF7DCFB23E00278EF
:101ED0002AB10190FFF7D6FB0198401CF7E71AE002
:101EE00002782AB10190FFF7CDFB0198401CF7E77B
:101EF00002AA1046FFF7C6FB0DF109021046FFF7D4
:101F0000C1FB08E0062007E00029DDD00129DED072
:101F10000229E5D0F6E70020DDF800E003B07047C5
:101F200082B0CDF800E002460C460020002149B204
:101F30000192019AB2F1FF3F06D1714A1146204643
:101F4000FFF70AFC0320D7E0012501AAD21C127872
:101F500002F08002D2B272B101AAD31C1A7882F0C8
:101F600080021A706A1CD3B22D222270621C1446A1
:101F7000DEB2A24601E0A246EEB2019A32B9614A4F
:101F800011465046FFF7E8FB0020B5E0019AB2F198
:101F9000FF4F06D15C4A11465046FFF7DDFBF0B219
:101FA000AAE05FFA80F94FFA81F8019A4FF07E506B
:101FB000FFF716FC40F2000000DD012048B1019A55
:101FC0005248FFF719FB0190A8F101084FFA88F871
:101FD000EBE7019A4D48FFF703FC40F2000000DCFC
:101FE000012048B1019A4A48FFF706FB019008F129
:101FF00001084FFA88F8ECE7019A5200019201AA11
:10200000D21C12787F3AD0B201AAD31C01221A70D6
:10201000019A8240019201AAD21C127830328AF8C9
:1020200000200AF10100B8F1010F06DBB8F1060F3C
:1020300003DC05465FFA89F103E02E220270451C9D
:10204000012106204FFA88F400B301AAD31C002214
:102050001A70019A9300019AD2180192019A5200C3
:10206000019201AAD21C127830322A706D1C51B92B
:10207000621E52B253B222B92E222A706D1C012167
:10208000FFE75CB2FFE7401EC0B2DDE7294660B261
:102090004A1E1278302A01D1491EF9E74A1E1278E9
:1020A0002E2A01D1491EFFE710B365220A70491C90
:1020B000002806DA2D220A70491C424250B243B26F
:1020C00000E043B2D8B2DAB2092A07D90A22B0FB3B
:1020D000F2F2D2B230320A70491CFFE70A23B0FB99
:1020E000F3F203FB1202D2B230320A70481C00E055
:1020F0000846002202700020DDF800E002B07047C0
:10210000AC000020B0000020B20000200000204100
:10211000CDCCCC3D81B0CDF800E05FFA81F95FFA1B
:1021200082FA0FE05FFA8AF15FFA89F0FFF7F2FBBB
:102130000DE05FFA8AF15FFA89F0FFF7C7FC06E06D
:10214000012004E00028EDD00128F2D0F8E7DDF806
:1021500000E001B07047FFFF84B0CDF800E08DF8DB
:102160000C009DF80C00FFF7AFFA019001990902ED
:1021700001919DF80C10491CC8B2FFF7A5FA01990E
:1021800001430191090201919DF80C10891CC8B20C
:10219000FFF79AFA019901430191090201919DF813
:1021A0000C10C91CC8B2FFF78FFA019901430191C5
:1021B00001AA02A9084611460422FFF773FA029801
:1021C000DDF800E004B0704781B0CDF800E00446CF
:1021D000054B1A700846FFF78DFD2046FFF76AFB96
:1021E000DDF800E001B07047B600002083B0CDF804
:1021F00000E08DF8080004218DF806100220FFF79A
:10220000BFFA00B1FAE701AA01211170521C9DF832
:10221000061041F080011170FFF740F901AA14493E
:1022200009780123C8B211460222FFF79DF9FFF792
:10223000C7FD0220FFF7A4FA00B1FAE701AA0121C5
:102240001170521C9DF808101170FFF727F901AAB0
:10225000074909780123C8B211460222FFF784F921
:10226000FFF7AEFDFFF7ACFDDDF800E003B070470F
:10227000B600002081B0CDF800E011E00846FFF77D
:1022800001FD16E00846FFF749FD12E00846FFF79A
:1022900061FD0EE00846FFF711FD0AE0012008E0AD
:1022A0000028EBD00128EDD02028EFD03028F1D045
:1022B000F4E7DDF800E001B07047FFFF81B0CDF832
:1022C00000E08B4609E05846FFF704FB0AE0584659
:1022D000FFF710FB06E0012004E00028F3D00128FE
:1022E000F5D0F8E7DDF800E001B0704781B04FF0BD
:1022F00000094FF0000CBDEB0A0F04DCBDEB0B0F27
:1023000001DBD446EA464BF8049BBBEB0A0FFAD13B
:10231000BCEB0A0F05DDE246D9F800B00BF1040B67
:10232000F1E701B07047FFFF81B01548006840F049
:102330000101134801601349134801601048016806
:10234000124801400E4801600D4801686FF480207A
:1023500001400B4801600C4801686FF4FE00014029
:1023600009480160064801686FF0A0500140044828
:1023700001604FF000010648016001B0704700BFE6
:10238000001002400000FFF004100240FFFFF6FEC4
:102390002C10024081B01CF8019B0BF8019BBBEB99
:1023A0000A0FF8D101B0704781B0CDF800E0354890
:1023B0000221FFF77DFD2820FFF7CEFE324908609D
:1023C0003249FFF7ADFD32480121FFF771FD0221CF
:1023D0002E48FFF76DFD1C20FFF7BEFE2A4908605E
:1023E0002A49FFF79DFD2B480121FFF761FD0221DE
:1023F0002648FFF75DFD1820FFF7AEFE2249086072
:102400002249FFF78DFD24480121FFF751FD0221EC
:102410001E48FFF74DFD2020FFF79EFE1A49086079
:102420001A49FFF77DFD1D480121FFF741FD0221FB
:102430001648FFF73DFD2420FFF78EFE1249086085
:102440001249FFF76DFD16480121FFF731FD02210A
:102450000E48FFF72DFD1420FFF77EFE0A490860A5
:102460000A49FFF75DFD0F480121FFF721FD022119
:102470000648FFF71DFDFFF7AFFCDDF800E001B0F7
:10248000704700BF14000020C4000020C8000020D6
:10249000280000203C00002052000020670000209F
:1024A0007E0000209500002081B0CDF800E0492298
:1024B0000E490F48FFF788FEFFF7DCFCFFF780FCB2
:1024C0000C480221FFF7F4FC002040F00000C0B2ED
:1024D00040F02000C0B240F00800FFF787FEFFF791
:1024E0007BFCDDF800E001B0704700BFAC290000C4
:1024F000302900000000002081B0CDF800E001226A
:1025000007210020FFF706FE002201210020FFF72F
:1025100001FE0C4801460020FFF7D0FE42F2805138
:102520002020FFF7A7FE44F67F77C0F2120700BF16
:1025300000BF7F1EFDD100BF00BF00BFDDF800E07F
:1025400001B07047BC1D000081B002490248016023
:1025500001B07047401901000001002081B0FEE782
:1025600001B0704700F00EF800F076FAFFF7ECFFCC
:1025700000F024FAFFF7C0FFFFF796FFFFF714FF04
:10258000FCE7FEE781B0CDF800E0464A464B474CF9
:1025900047494BF68030814206D94648006840F0F2
:1025A00002014448016011E045F6C050814206D95D
:1025B0004048006840F001013E48016006E03D48A7
:1025C00001686FF0070001403A480160FFF7ACFE78
:1025D0003948036039480460394802EA0001394843
:1025E000016002F0010040B119463648006800F071
:1025F0000200002800D1F8E700E0194602F480301C
:1026000040B10B462F48006800F40030002800D18C
:10261000F8E700E00B4602F0805068B129480068F6
:1026200040F08051274801602648006800F00050C3
:10263000002800D1F8E7FFE702F0806078B1214878
:10264000006840F080611F48016011461A461D482D
:10265000006800F00060002800D1F8E701E01146B2
:102660001A4601F0807070B11648006840F0807121
:102670001448016011461348006800F0007000B96A
:10268000F9E70A46FFE70C48006800F00C019000EB
:1026900000F00C00814200D0F5E7DDF800E001B069
:1026A000704700BF8100010502841D00440601003F
:1026B0004019010000200240041002402C1002408A
:1026C000FFFF0F00001002402D2D2D205379737451
:1026D000656D20696E6974202D2D2D002D2D2D2DF9
:1026E0002D2D2D2D2D2D2D2D2D2D2D2D2D2D2D0047
:1026F0002D2D2052202820526564206461746120B1
:1027000029203A002D2D2047202820477265656E2C
:1027100020646174612029203A002D2D2042202858
:1027200020426C756520646174612029203A002D77
:102730002D205920282059656C6C6F7720646174B6
:10274000612029203A002D2D204F2028204F726132
:102750006E676520646174612029203A002D2D2068
:102760005620282056696F6C65742064617461205E
:1027700029203A004E614E003000494E4600FFFFCE
:102780003800000039000000FFFFFFFF00000000DC
:102790000000000000000000000000000000000039
:1027A0000000000000000000000000000000000029
:1027B00000000000180800001800000000000000E1
:1027C0000000000000000000000000000000000009
:1027D00000000000000000000000000000000000F9
:1027E0000000000000000000300014083500000068
:1027F00036000000FFFFFFFF0000000000000000A7
:1028000000000000000000000000000000000000C8
:1028100000000000000000000000000000000000B8
:102820001808000018000000000000000000000070
:102830000000000000000000000000000000000098
:102840000000000000000000000000000000000088
:102850000000000008000008090000000A00000055
:10286000FFFFFFFF0000000000000000000000006C
:102870000000000000000000000000000000000058
:102880000000000000000000000000001808000028
:102890001800000000000000000000000000000020
:1028A0000000000000000000000000000000000028
:1028B0000000000000000000000000000000000018
:1028C000040000001600000017000000FFFFFFFFDB
:1028D00000000000000000000000000000000000F8
:1028E00000000000000000000000000000000000E8
:1028F0000000000000000000280800002808000078
:1029000000000000000000000000000000000000C7
:1029100000000000000000000000000000000000B7
:1029200000000000000000000000000002000000A5
:10293000611800006D1800004918000055180000CB
:10294000791800009D180000A918000085180000E3
:1029500091180000391E0000451E0000511E0000A5
:10296000FFFFFFFFFFFFFFFFFFFFFFFFFFFFFFFF77
:10297000FFFFFFFFFFFFFFFFFFFFFFFFFFFFFFFF67
:10298000FFFFFFFFFFFFFFFFFFFFFFFFFFFFFFFF57
:102990000000000001020304010203040607080905
:1029A000000000000000000000000000E90C000032
:1029B000410F00007D1100000204060800B5DFF899
:1029C00024B0DFF824A0DFF824C0FFF7E3FCDFF831
:1029D00020B0DFF820A0DFF820C0FFF7DBFC00BD4F
:1029E000704700BF00000020B6000020C82600008D
:1029F000B8000020C4000020A0290000FFFFFFFF56
:102A0000FFFFFFFFFFFFFFFFFFFFFFFFFFFFFFFFD6
:102A1000FFFFFFFFFFFFFFFFFFFFFFFFFFFFFFFFC6
:102A2000FFFFFFFFFFFFFFFFFFFFFFFFFFFFFFFFB6
:102A3000FFFFFFFFFFFFFFFFFFFFFFFFFFFFFFFFA6
:102A4000FFFFFFFFFFFFFFFFFFFFFFFFFFFFFFFF96
:102A5000FFFFFFFFFFFFFFFF00B5DFF810B0DFF85B
:102A600010A0FFF743FC00BD704700BF000000202E
:102A700040010020FFFFFFFFFFFFFFFFFFFFFFFF01
:00000001FF
